S01700004C574D5F4D5353595F6D61737465722E7372656387
S11300009FC00000BDC00000BBC00000B9C000001C
S1130010B7C00000B5C00000B3C00000B1C000000C
S1130020AFC00000ADC00000ABC00000A9C000001C
S1130030A7C000003BC20000A3C00000A1C0000094
S11300409FC000009DC000009BC0000099C000003C
S113005097C0000095C0000093C0000091C000004C
S11300608FC00000A6C100008BC0000089C0000042
S113007087C0000085C0000083C0000081C000006C
S11300807FC000007DC000007BC0000079C000007C
S11300902BC400000DC4000073C0000071C0000038
S11300A06FC000006DC000009DC3000069C0000067
S11300B067C0000065C0000063C0000061C00000AC
S11300C05FC000005DC000005BC0000059C00000BC
S11300D057C0000055C0000053C0000051C00000CC
S11300E04FC000004DC000004BC0000049C00000DC
S11300F047C0000045C0000043C0000041C00000EC
S11301003FC000003DC000003BC0000039C00000FB
S113011037C0000035C0000033C0000031C000000B
S11301202FC000002DC000002BC0000029C000001B
S113013027C000006364696E6F70737578585B0044
S113014011241FBECFEFD1E8DEBFCDBF00E00CBF4E
S113015012E0A0E0B2E0E4E5F0E300E00BBF02C08F
S113016007900D92A23CB107D9F72AE1A2ECB2E0C4
S113017001C01D92AA39B207E1F7F2D00C942818F5
S11301803FCFCF93DF93009751F0EC018A859B8595
S1130190009711F00E945410CE010E945410DF9178
S11301A0CF9108954F925F926F927F928F929F9218
S11301B0AF92BF92CF92DF92EF92FF920F931F9371
S11301C0CF93DF9300D01F92CDB7DEB7FC01178128
S11301D0008544E050E06CE272E0812F902F0E9491
S11301E05911892B09F07FC08091C502882309F435
S11301F07AC01092C5021C821B821A821982E09076
S11302008400F0908500CE0101969F938F9302960F
S11302109F938F9381E392E09F938F930F931F9308
S11302200E941C128091C6029091C7028701081B8C
S1130230190B4801A12CB12C89819A812B813C8115
S1130240821B930BA5019401281B390B4109510909
S1130250DA01C90169017A010FB6F894DEBF0FBE55
S1130260CDBFBB232CF45FEFC51AD50AE50AF50A06
S1130270F594E794D794C794A8EEB3E0A701960148
S11302800E94B20F0F2EF0E94F2EF0ED5F2EF3E037
S11302906F2E712CF02DA30192010E94650F5F93C4
S11302A04F933F932F93FF92EF92DF92CF92980157
S11302B0A8EEB3E00E94A30FA30192010E94650F70
S11302C05F934F933F932F931F921F929F928F920E
S11302D085E492E09F938F930E949D110FB6F8944A
S11302E0DEBF0FBECDBF81E00F900F900F900F9037
S11302F0DF91CF911F910F91FF90EF90DF90CF90FE
S1130300BF90AF909F908F907F906F905F904F9031
S113031008950895F89480E895E20E94270F80E0FC
S113032096E90E943C0F789408951092800083E02F
S11303308093810010928500109284000895F894AF
S113034082E08093B00087E08093B1008EE48093D4
S1130350B300E0E7F0E080818260808378940895C0
S1130360D9DFE3DFECDF0E94220E60E076E980E073
S113037090E049D28AE092E09093971A8093961A7B
S113038080E090E062D381E192E366D38FE00E9443
S1130390510D81E00E944D0D62ED70E081E063D368
S11303A08AE792E00E94B01178940E94290EF3D259
S11303B0FCCF1F920F920FB60F9211240BB60F921F
S11303C02F933F934F935F936F937F938F939F9359
S11303D0AF93BF93EF93FF93CF93DF93CDB7DEB784
S11303E06A97DEBFCDBF8091C6008A3099F5E0914F
S11303F0CA02F0E0EB5EF54E1082BE016F5F7F4FE4
S113040085E19AE1DBD08F8180538A3000F568E181
S113041072E0CE0107960E944911892BC1F0BE01FA
S1130420695F7F4F88E192E00E94521181E08093DE
S1130430C50288E192E09F938F938DE892E09F93A9
S11304408F930E949D110F900F900F900F90109218
S1130450CA0211C09091CA02913558F4E091CA02BF
S113046091E09E0F9093CA02F0E0EB5EF54E80831C
S113047002C01092CA026A960FB6F894DEBF0FBE8D
S1130480CDBFDF91CF91FF91EF91BF91AF919F913C
S11304908F917F916F915F914F913F912F910F9029
S11304A00BBE0F900FBE0F901F9018951F920F92C6
S11304B00FB60F9211240BB60F922F933F934F93C5
S11304C05F936F937F938F939F93AF93BF93CF93D8
S11304D0DF93EF93FF938091C4028F5F843618F407
S11304E08093C40256C01092C402809184009091FB
S11304F085009093C9028093C8028091C8029091AC
S1130500C9029093C7028093C60280E490E00E94DF
S1130510BC0FEC01892BE9F18091C8029091C902CA
S11305209F938F9388E192E09F938F938DE992E05C
S11305309F938F931F9280E48F93DF93CF930E94B6
S1130540E01181E190E00E94BC0FFC018DB79EB7E1
S11305500A960FB6F8949EBF0FBE8DBF309721F454
S1130560CE010E94541015C081E090E096838583EB
S1130570878380871186D387C287DE010D90002090
S1130580E9F7AC1BA48781EC90E096878587CF01BF
S11305909FD2FF91EF91DF91CF91BF91AF919F9146
S11305A08F917F916F915F914F913F912F910F9018
S11305B00BBE0F900FBE0F901F9018952F923F9275
S11305C04F925F926F927F928F929F92AF92BF925F
S11305D0CF92DF92EF92FF920F931F93CF93DF930B
S11305E0CDB7DEB72D970FB6F894DEBF0FBECDBFE3
S11305F06B01FC012081243209F401966FE272E060
S11306000E9432118C01892B09F4AAC0E12CF12C2F
S11306104E01FBE08F0E911C5E0188E0A80EB11C18
S11306203E0195E0690E711C0F2EF2EB4F2EF2E0A5
S11306305F2EF02D1601E6E02E0E311CE114F104BC
S113064031F0F1E0EF16F10409F07DC012C045E08D
S113065050E0B801C6010E946711F60115826FE2ED
S113066072E080E090E00E9432118C01892B09F441
S113067077C06CEA72E0C6010E944911892B09F027
S11306805BC0F80101900020E9F73197E01BF10B02
S1130690369708F455C042E050E0B801C4010E9406
S11306A067111D86B8016E5F7F4F42E050E0C501BF
S11306B00E9467111A86B8016C5F7F4F42E050E0D8
S11306C0C3010E9467111F826EE270E0C8010E949C
S11306D03E11009759F0BC016F5F7F4F43E050E03B
S11306E0CE0101960E9467111C8208C080E390E34A
S11306F09A838983E0E3F0E0FC83EB8381E090E07C
S11307008C0F9D1F9F938F937F926F92BF92AF9296
S11307109F928F925F924F921F9294E19F933F9288
S11307202F920E94E0110FB6F894DEBF0FBECDBF2A
S1130730EE24E394F12C07C0EE24E394F12C03C0DF
S1130740EE24E394F12CFFEFEF1AFF0A6FE272E05C
S113075080E090E00E9432118C01892B09F06ECF69
S11307602D960FB6F894DEBF0FBECDBFDF91CF91AB
S11307701F910F91FF90EF90DF90CF90BF90AF90BB
S11307809F908F907F906F905F904F903F902F90AD
S1130790089514BE0FB6F894A895809160008861FE
S11307A080936000109260000FBEE1E6F0E080E804
S11307B080831082789401C008951092671A80E1B2
S11307C097E29093A9008093A800E1EAF0E088E022
S11307D08083808182608083E2E7F0E080818260B0
S11307E0808308951F920F920FB60F9211248F9356
S11307F08091671A8F5F8093671A8F910F900FBE55
S11308000F901F901895DC01CB01880F991FAA1F28
S1130810BB1F880F991FAA1FBB1F9C01AD01220F8C
S1130820331F441F551F220F331F441F551F60E001
S113083074E284EF90E00E94650FBA01A90141506F
S1130840510961097109BB27A72F962F852F809322
S1130850CD004093CC0082E08093C80088E9809367
S1130860C90086E08093CA00E9EFF5E088E694E0E9
S11308709187808780E991E095838483178216822B
S11308801182108213821282EEE5F4E02DEC32E044
S11308903187208795838483178216821182108280
S11308A01382128281E08093CC021092CB020895CD
S11308B01F920F920FB60F9211240BB60F928F93C3
S11308C0EF93FF9381E08093CC02E9ECF0E0808128
S11308D08F7D8083FF91EF918F910F900BBE0F90CE
S11308E00FBE0F901F9018951F920F920FB60F9284
S11308F011240BB60F922F933F934F935F936F93F3
S11309007F938F939F93AF93BF93EF93FF938091C4
S1130910C8002091CE008C7159F5EEE5F4E04681D3
S11309205781848195814817590711F14085518574
S113093082819381BC016F5F7F4F73836283DA018D
S1130940A80FB91F2C9322813381848195812817A4
S1130950390721F41092610410926004EEE5F4E08A
S11309608681978101969783868381E08093CB0269
S1130970FF91EF91BF91AF919F918F917F916F9173
S11309805F914F913F912F910F900BBE0F900FBE2F
S11309900F901F9018958091FF0590910006009785
S11309A069F12091CC02222349F1E9EFF5E0608559
S11309B0718520813181A9014F5F5F4F518340834D
S11309C0DB01A20FB31F2C91648175814617570771
S11309D021F41092FA051092F905019790930006FC
S11309E08093FF059FB7F8942093CE00E9ECF0E0E4
S11309F08081806280831092CC029FBF2FB7F894CD
S1130A009091CB021092CB02409164045091650402
S1130A102FBF992311F0CA017CCC0895E8E6FAE1CE
S1130A20148215821182108217A216A2EEE6FAE150
S1130A308EE89AE111921192E817F907D9F743D693
S1130A4060D30DD140D092C108959093691A8093D8
S1130A50681A0C94670D089590936B1A80936A1A20
S1130A600C94550D0895E82FF0E0EE0FFF1FE259A6
S1130A70F54E7183608308958CD321D74DC00895BA
S1130A80E0910306F09104063097D9F02281338176
S1130A908217930789F405C0228133812817390707
S1130AA059F4DC01AD57BF4F2C91278713962C9135
S1130AB0208B22E0248305C00190F081E02D309743
S1130AC059F711C10895109204061092030608956F
S1130AD0FC011482178613821282A8E6BAE1969664
S1130AE08D919C919797019697969C938E93969748
S1130AF08091030690910406009739F411821082C4
S1130B00F0930406E0930306089591838083F093A1
S1130B100406E093030608950F931F93CF93DF9386
S1130B20E0910306F0910406309709F493C0EF01B5
S1130B308C81882321F0823009F466C085C09AD064
S1130B408C01009721F482E08C838F8783C09B8380
S1130B508A8381E08C83F801E957FF4F80E495E0B4
S1130B60918380833197898582FB882780F98083EC
S1130B709985D8011B968C911B9790FB80F91B9645
S1130B808C931B97998593FB992790F990FB82F995
S1130B901B968C931B97E8E6FAE184818F5F84832C
S1130BA01C968C931C97808191811E969C938E93A6
S1130BB01D978D819E8150969C938E931F97888557
S1130BC0982F9F7051968C915197807F892B5196C5
S1130BD08C9351979F819295907F8F70892B51961A
S1130BE08C93F801EF57FF4F4C8550E06A857B8565
S1130BF0808191810E943511F80191818C85890F42
S1130C008183C80183D526C0EC17FD0741F4808198
S1130C10918190930406809303060AC0FC018081AD
S1130C2091818C179D07D1F7888199819183808365
S1130C30E8E6FAE186A197A1019797A386A3ED853B
S1130C40FE85CE01199506C00990D881C02D209744
S1130C5009F06ECFDF91CF911F910F910895E5E0D8
S1130C60F6E083E196E11082E757FF4FE817F907B2
S1130C70D1F7089580910506882359F0EEE8F6E04F
S1130C8063E176E181E090E0AC012081211122C092
S1130C9002C040E050E069E8649F9001659F300D18
S1130CA01124C9018B5F994FFC0111926A95E9F7F0
S1130CB040E1FC014183EF57FF4F295E394F3183F7
S1130CC02083E8E6FAE126A137A12F5F3F4F37A33F
S1130CD026A308950196E757FF4FE617F707A1F6F5
S1130CE080E090E00895FC011082E8E6FAE186A134
S1130CF097A1019797A386A30895009741F0FC015B
S1130D00E757FF4F86E1E331F80718F012C0E5E03A
S1130D10F6E08081882321F00FC0808181110FC00B
S1130D20E757FF4F86E1E331F807B8F380E090E03E
S1130D30089580E090E008958E2F9F2F08958E2FC0
S1130D409F2F0895FC01DC01AD57BF4F1C92A8E60C
S1130D50BAE114969C9114979F5F14969C931497F0
S1130D6094878D919C91968785870895A4E1B6E137
S1130D7080E090E04FEF5FEF11965C934E93FC019F
S1130D80EE0FFF1FEE0FFF1FEE0FFF1FE81BF90B07
S1130D90ED5EF94E20812E7F208314961C921497C9
S1130DA0019617968436910539F708950F931F938A
S1130DB0CF93DF93E4E1F6E120E030E0062F10E08A
S1130DC04081518148175907B1F4D901AA0FBB1FBB
S1130DD0AA0FBB1FAA0FBB1FA21BB30BAD5EB94E5C
S1130DE04C9146954170C42F40E0D42FC017D107D1
S1130DF011F4CD0108C02F5F3F4F379624363105DB
S1130E00F9F680E090E0DF91CF911F910F91089562
S1130E10A0E0B0E0E3E1F6E1808180FD0DC08581D2
S1130E20882381F0109739F015969C9115978917AE
S1130E3018F4DF0101C0DF01379688E1EF3CF807C1
S1130E4059F7FD0180818D708063808380E88583FC
S1130E50CF010895FC01808180FD05C08FEF9FEFD5
S1130E609283818315820895A1DF009721F0FC010C
S1130E708381948108958FEF9FEF089597DF009702
S1130E8009F0E8CF08950F931F93CF93DF93FC01EC
S1130E900185128511232CF4858596850817190779
S1130EA0E1F5858196810196C1F1EF0160E08585C8
S1130EB096857CDFFC01892BA1F08F8198850196B2
S1130EC0F9F42091681A3091691A8F859889281746
S1130ED03907B1F41483038380818F708063808326
S1130EE00AC096DFFC018D859E8592838183898566
S1130EF09A8594838383CD57DF4F888186830DC081
S1130F008381948108171907B1F39681DE01AD57E7
S1130F10BF4F8C919817F0F2EECFDF91CF911F91D4
S1130F200F910895CF93DF93FC01878590898F3FBC
S1130F302FEF9207D9F1EF01638563FB662760F910
S1130F4035DFDC01892B91F18C9180FD2FC0FE01EE
S1130F50ED57FF4F8081811119C08C918F70806390
S1130F608C9315968C9115978F5F15968C938F3F64
S1130F70E9F4E8E1F6E124ED38E1808186958F5FBC
S1130F8080833796E217F307C1F710C09C91892F2D
S1130F9082958F70815F8F70282F2295207F9F709C
S1130FA0922B9C93811102C0CD0154DFDF91CF912C
S1130FB00895CF93DF93FC01878590898F3F2FEFAE
S1130FC0920729F48FEF9FEF908787830EC02385C4
S1130FD022FF03C09087878308C0EF01638563FB0A
S1130FE0662760F941DF98878F83DF91CF91089559
S1130FF0AF92BF92CF92DF92EF92FF921F93CF9363
S1131000DF93EC011B8513FB112710F9CF84D888DB
S1131010612FC60129DF019659F0FE01E957FF4F00
S113102011821082319782E08083CE016FD322C077
S1131030AD84BE841FDE7C010097D1F083DEF7010E
S113104081818A5F8183E957FF4F11821082F70102
S1131050B08AA786EF57FF4F0190F081E02D81E021
S11310608083B282A182D482C3821583C7014ED306
S1131070CE0139DEDF91CF911F91FF90EF90DF9089
S1131080CF90BF90AF900895FC012185263049F49C
S11310900780F085E02D658183819481EFDE81E016
S11310A0089580E00895DC0119962C911997222364
S11310B071F01796ED91FC9118972081222319F075
S11310C0213019F006C0B3C30895DECF089580E03F
S11310D0089580E00895BC01E1EEF8E123E139E1EF
S11310E040E051E09081992319F091509083452F6D
S11310F03596E217F307B1F7442311F0CB0131C65B
S11311000895E1EEF8E183E199E110823596E8175C
S1131110F907D9F7EFECF8E184E690E0A0E0B0E05D
S113112086839783A087B18712868BE698E094879D
S1131130838763E578E080E096CC0895CF93DF93CE
S1131140DC01ED91FC91119721812838F9F420817B
S11311502F7D2134D9F412962C912031B8F0EC0172
S113116089DD009799F020E2FC0120832A81218304
S11311702B81ED57FF4F20832C81319620834A81A8
S113118050E06881798102960E943511DF91CF91F8
S113119008952F923F924F925F926F927F928F9217
S11311A09F92AF92BF92CF92DF92EF92FF920F93F2
S11311B01F93CF93DF93CDB7DEB72C970FB6F89478
S11311C0DEBF0FBECDBF00E010E00F2EF4E2BF2E55
S11311D0F02D0F2EF8E6EF2EFAE1FF2EF02D552418
S11311E053946894AA24A4F86894772473F86894B0
S11311F0662462F8312C212C0F2EFFE14F2EF02DA6
S1131200CC24C394D12CDAC1D8018C91823209F454
S113121005C118F4803241F0D1C1833209F4C9C147
S1131220843209F4C9C1CAC1F801B0828385982FF8
S11312309A7009F0C3C1258136812F3F3F4F91F445
S1131240D8011F968D919C915097F701208131818F
S11312502817390719F0019609F0B0C1E2E2D80164
S1131260EC93ACC1D8011F962D913C9150972F3F20
S11312703F4F11F480FDA2C1F70120813181D801D3
S11312801D968D919C911E972817390709F496C1D4
S1131290C801F9DDEDEDF8E180E090E0832C922CBB
S11312A09C014481442309F474C0D8011D966D91B6
S11312B07C911E97408151816417750709F06AC0BB
S11312C01C968C911C97F901EE0FFF1FEE0FFF1F68
S11312D0E20FF31FE352F74E9281981B983008F007
S11312E03EC0F901EE0FFF1FEE0FFF1FE20FF31FC9
S11312F0E352F74E8381482F50E0092E02C05595E2
S113130047950A94E2F740FF17C0F7012081318125
S113131017968D919C9118972817390709F04EC19B
S11313201B966C911B9763FB662760F91F968D9142
S11313309C915097A3DD42C1F901EE0FFF1FEE0F00
S1131340FF1F2E0F3F1FF901E352F74E960102C013
S1131350220F331F9A95E2F7822B838336C1F9015A
S1131360EE0FFF1FEE0FFF1F2E0F3F1FF901E35279
S1131370F74E82838381282F30E09195A90102C022
S1131380440F551F9A95E2F7CA0181608383448212
S11313901CC14F01019635968A30910509F080CF22
S11313A08114910409F40AC1D8011D968D919C9170
S11313B01E97F401918380831C968C9182835382BF
S11313C044828FEC98E1CDD400C1D7012D913C919A
S11313D0F801878590892817390781F0438542FDF4
S11313E00BC0C801E1D1D7012D913C91F80187854B
S11313F090892817390711F0019621F4E2E2D80107
S1131400EC93DCC0D80117968D919C9118978217A4
S1131410930709F0D3C0E3E2EC93D0C01092DC1838
S1131420D80151968C91519782958F70E82FF0E0F6
S1131430EE0FFF1FE259F54E0190F081E02D309739
S113144009F460C01D962D913C911E973A8329831F
S11314501F964D915C9150975C834B8351969C9160
S113146051979F709D838E83AF57BF4F8D919C91F1
S113147099878887B8016E5F7F4F861B970BD801C9
S113148011969C911197981B9A87AD57BF4F8C91D9
S11314908B8711968C918C87D8011B969C91692F10
S11314A0637092FD02C080E001C080E2862B93FD50
S11314B002C090E001C090E4892B4F3F5F4F11F0D0
S11314C090E001C0962D892BD80119964D915C911D
S11314D01A972417350711F090E001C0972D892B36
S11314E08F83D80115962D913C9116972F3F3F4F2E
S11314F011F090E001C09A2D892B8F83CE010196C3
S1131500199501C080E0F801938590FF80E0D8012F
S113151017962D913C9118972F3F3F4F69F4F7018F
S113152040815181D8011F962D913C9150974217CB
S1131530530711F493FF852DF801258136812F3F40
S11315403F4FA1F1D7012D913C912F3F3F4F71F1B6
S1131550882361F18FDB4C01009741F1F3DBF40147
S113156081818D5F8183E957FF4F11821082D801F9
S11315701B968C911B9786958170F401938580FB53
S113158091F993871D968D919C911E97908B8787D7
S1131590EF57FF4F0190F081E02D10828091DC180D
S11315A082831C968C918183C401B0D0D801BC92F3
S11315B005C0C8011DDD02C0C80195DBC8019DDB63
S11315C08C01892B09F020CE07C0F8018781908512
S11315D0019609F008CFF9CE2C960FB6F894DEBF29
S11315E00FBECDBFDF91CF911F910F91FF90EF9070
S11315F0DF90CF90BF90AF909F908F907F906F902F
S11316005F904F903F902F900895EF92FF920F9329
S11316101F93CF937C0110E080E090E001E0C3E1F0
S113162013C0FC012081213179F4EC57FF4F208154
S113163031812150310931832083232B21F4FC0192
S1131640C083102F01C0102F58DB009751F71123CE
S113165011F0C70186D3CF911F910F91FF90EF90A6
S11316600895EF92FF920F931F93CF93DF937C0122
S113167010E080E090E001E0D7E1C0E116C0FC0199
S11316802081263191F4EC57FF4F20813181215084
S1131690310931832083232B39F4FC01D083ED57A6
S11316A0FF4FC083102F01C0102F27DB009739F79D
S11316B0112311F0C70155D3DF91CF911F910F91E1
S11316C0FF90EF90089510922A1910922919ECE1D5
S11316D0F9E182E390E0A0E0B0E086839783A087FD
S11316E0B187128681E39BE094878387EFE0F9E179
S11316F08AE090E0A0E0B0E086839783A087B1877A
S1131700128685E09BE0948783870895CF93DF93C7
S1131710EC01FC01EA57FF4F808181FF03C092E195
S1131720988302C092E19883FE01ED57FF4F108227
S113173080FF05C02FEF3FEF3E832D8306C020912D
S11317406A1A30916B1A3E832D83857019F4CE0189
S113175030DC04C08F85988998878F83E8E6FAE1A6
S1131760808191819A87898785818F5F85838C8326
S11317708F819885019669F481E498E89B838A8334
S113178063D5CC57DF4F8770992701969983888357
S113179008C081E698E89B838A83CC57DF4F19827F
S11317A01882DF91CF9108950F931F93CF93DF9306
S11317B08C0160DAEC01892BA9F182E18883F801BC
S11317C081818983FE01ED57FF4F10823DD5FE01D3
S11317D0EC57FF4F87709927019691838083339646
S11317E011821082F801418150E0B8016E5F7F4F91
S11317F0CE0102963AD581E498E89B838A838FEFE1
S11318009FEF98878F83F801858196819E838D83CE
S1131810E8E6FAE1808191819A87898785818F5FE3
S113182085838C83DF91CF911F910F910895CF937E
S1131830DF93FC0121852330D9F410C0FC01208101
S1131840263189F43485298132130DC027E12083A0
S11318502A81EA57FF4F208381E00BC0FC01C78136
S1131860D08580E090E049DA009741F780E001C03C
S113187080E0DF91CF910895E0912919F0912A1920
S1131880813021F048F0823019F004C080E205C0B4
S113189081E203C081E001C080E0DF01AD57BF4FAA
S11318A08C9385E1808310922A1910922919E8E615
S11318B0FAE186A197A1019797A386A308959F9221
S11318C0AF92BF92CF92DF92EF92FF920F931F934A
S11318D0CF93DF93C0E0D0E00F2EF4E1AF2EF02DD4
S11318E008E61AE10F2EF7E1DF2EF02D0F2EF6E1B8
S11318F09F2EF02D0F2EF9E2EF2EF12CF02D0F2E4E
S1131900F3E1CF2EF02D0F2EF1E1BF2EF02D60C0AC
S113191088818331C1F018F4823139F059C085319E
S113192049F1873109F445C053C0FE01EC57FF4F1C
S113193080819181892B29F0B8828FE099E111D2BD
S113194047C0C88245C08091291990912A19892BD2
S113195009F03EC0D0932A19C0932919A88269813D
S1131960CE010296CBD0F80186A197A1019697A348
S113197086A32EC0FE01ED57FF4F8081811117C051
S11319802D853E85F801808191812817390769F4F6
S11319908B8580FF0AC09882FE01EC57FF4FF182CD
S11319A0E0828CE199E1DDD113C0D88211C0D882E4
S11319B00FC0CE01B7DAFE01E957FF4F0190F08165
S11319C0E02D309719F4CE018ED902C0CE011995BD
S11319D0CE0193D9EC01892B09F09ACFDF91CF91F5
S11319E01F910F91FF90EF90DF90CF90BF90AF9039
S11319F09F90089580912B19982F9F70E4E5F1E052
S1131A008081807F892B808380912B19882329F002
S1131A1080912C1980935301089580912C19982F4B
S1131A209F71E8E4F1E08081807E892B80830895B2
S1131A3093E090934201E1E4F1E090819F7198304A
S1131A40E1F780934201E1E4F1E090819F71891311
S1131A50FCCF089588E0ECDF8FEF80934F018091F5
S1131A602D19882311F086E1E3CF0895E9E3F1E02D
S1131A7080818160808310922D1910922B1981E04E
S1131A808093AE1988E0D4DF8BEE80935601ECE4AA
S1131A90F1E0808180688083089580932D19DACFE6
S1131AA0089580932C19A6CF0895CF93DF931F92A6
S1131AB01F92CDB7DEB79A838983809362018A81AE
S1131AC0809363010F900F90DF91CF910895CF938E
S1131AD0DF931F921F92CDB7DEB79A8389838093D9
S1131AE060018A818093610199818A81890F809341
S1131AF06D010F900F90DF91CF9108951F93CF93B5
S1131B00DF93182FD92FC62F89E192DF8FEF8093AF
S1131B104F0182E08C0F80938001CC2371F0A12FC0
S1131B20BD2FC1506C2F70E06E577E4FE1E8F1E09D
S1131B308D918193E617F707D9F783E08093AE1967
S1131B4082E080934201DF91CF911F9108951F930A
S1131B50CF93DF9300D01F921F92CDB7DEB7809151
S1131B60AE19823009F465C080914F0183FF3EC0F5
S1131B70A0917B016A2F70E0AB014F5F5F4F80E063
S1131B8090E020E0FC01E058FE4F3081FC01E25D72
S1131B90F64E30832F5F822F90E08417950794F3DD
S1131BA08EE299E19A838983A250AB83FB01E25DC3
S1131BB0F64E80818C83809147018A558D83CE01B6
S1131BC00196BCDAE1E4F1E080818F718631E1F7BE
S1131BD0EFE4F1E0808188608083ECE4F1E08081CF
S1131BE08F77808380818068808323C080914F01B8
S1131BF086FF1FC0809141018F718931A9F4109132
S1131C00420112951695177049F0133021F01530E2
S1131C1021F013E003C011E001C012E01BDF81E0FA
S1131C208093AE19812F28DEEFE4F1E08081806497
S1131C3080830F900F900F900F900F90DF91CF91B2
S1131C401F9108950E94C9036DD010DF0C940E05F6
S1131C5008957DDF0E943C058FC008950F931F9364
S1131C60CF93DF93EC018091AF199091B019009755
S1131C7009F445C04E815F8168857985FC01028144
S1131C80138124813581401751076207730760F07F
S1131C90DC0117C00281138124813581401751076B
S1131CA06207730768F403C0FC01A0E0B0E0041B02
S1131CB0150B260B370B02831383248335830AC049
S1131CC0DF01401B510B620B730BED91FC911197DB
S1131CD0309701F74A835B836C837D83109741F0CF
S1131CE08D919C91119799838883CD93DC9315C032
S1131CF099838883D093B019C093AF190EC0198209
S1131D0018828E819F81A885B9858A839B83AC8341
S1131D10BD83D093B019C093AF19DF91CF911F91B8
S1131D200F9108951092B0191092AF190895E0918F
S1131D30AF19F091B019309771F0E817F90721F451
S1131D400CC08E179F0759F00190F081E02D309759
S1131D50C1F780E0089580E0089581E0089581E06E
S1131D600895CF93DF93EC01E2DF811102C0CE012D
S1131D7075DFDF91CF910895CF92DF92EF92FF92BA
S1131D80CF93DF938091671A882309F459C08FB7E2
S1131D90F894C090671A1092671A8FBFD12CE12C67
S1131DA0F12CCC0CDD1CEE1CFF1CD701C601880FE6
S1131DB0991FAA1FBB1F880F991FAA1FBB1FC80EFC
S1131DC0D91EEA1EFB1EC091AF19D091B0192097FD
S1131DD0B9F18A819B81AC81BD81C816D906EA0616
S1131DE0FB0610F1C81AD90AEA0AFB0A888199810C
S1131DF09093B0198093AF198A85813011F4CE0184
S1131E002DDFEB85FC85CE011995C091AF19D091DA
S1131E10B0192097A9F08A819B81AC81BD81C81635
S1131E20D906EA06FB06F0F68A819B81AC81BD8166
S1131E308C199D09AE09BF098A839B83AC83BD833A
S1131E40DF91CF91FF90EF90DF90CF9008959C01A8
S1131E5040E050E060E271EA87E090E058D0215021
S1131E6031093093C5002093C40086E08093C200FA
S1131E7080E98093C10008959C0140E050E060E255
S1131E8071EA87E090E043D0215031093093CD00CE
S1131E902093CC0086E08093CA0088E08093C90038
S1131EA00895E8ECF0E0908195FFFDCF8093CE009B
S1131EB00895CF93C82F8A3011F48DE0F2DF8C2F70
S1131EC0F0DF80E090E0CF910895A1E21A2EAA1BE2
S1131ED0BB1BFD010DC0AA1FBB1FEE1FFF1FA217D6
S1131EE0B307E407F50720F0A21BB30BE40BF50BD3
S1131EF0661F771F881F991F1A9469F7609570955C
S1131F00809590959B01AC01BD01CF010895052EEC
S1131F1097FB16F400940FD057FD05D0D6DF07FCCD
S1131F2002D046F408C050954095309521953F4F16
S1131F304F4F5F4F089590958095709561957F4FB1
S1131F408F4F9F4F0895A29FB001B39FC001A39FDD
S1131F50700D811D1124911DB29F700D811D1124DE
S1131F60911D0895F0DFA59F900DB49F900DA49F3F
S1131F70800D911D112408950F931F93CF93DF9328
S1131F808230910510F482E090E0E091921AF09191
S1131F90931A20E030E0A0E0B0E0309719F14081DE
S1131FA051810281138148175907C8F08417950796
S1131FB069F4109731F012960C93129713961C93B0
S1131FC027C00093921A1093931A22C02115310549
S1131FD019F04217530718F49A01BD01EF01DF010C
S1131FE0F801DBCF21153105F9F0281B390B24301A
S1131FF0310580F48A819B816115710521F0FB0113
S11320009383828304C09093931A8093921AFE015F
S1132010329644C0FE01E20FF31F81939193225044
S11320203109398328833AC02091901A3091911A4A
S1132030232B41F420910202309103023093911A30
S11320402093901A2091000230910102211531054C
S113205041F42DB73EB74091040250910502241B70
S1132060350BE091901AF091911AE217F307A0F45E
S11320702E1B3F0B2817390778F0AC014E5F5F4FDA
S11320802417350748F04E0F5F1F5093911A409361
S1132090901A8193919302C0E0E0F0E0CF01DF91C8
S11320A0CF911F910F910895CF93DF93009709F477
S11320B081C0FC01329713821282A091921AB091CE
S11320C0931A109781F420813181820F931F2091FC
S11320D0901A3091911A2817390751F5F093911AF3
S11320E0E093901A67C0ED0120E030E0CE17DF07DF
S11320F040F44A815B819E0141155105F1F0EA01EA
S1132100F5CFD383C28340815181840F951FC817B3
S1132110D90759F488819981840F951F0296918378
S113212080838A819B81938382832115310529F4DD
S1132130F093931AE093921A3DC0E901FB83EA837A
S113214049915991C40FD51FEC17FD0761F48081A3
S11321509181840F951F0296E90199838883828176
S113216093819B838A83E0E0F0E012968D919C91A9
S11321701397009719F0FD01DC01F7CF8D919C9125
S113218011979D012E5F3F4F820F931F2091901A4C
S11321903091911A2817390769F4309729F410926D
S11321A0931A1092921A02C013821282B093911A57
S11321B0A093901ADF91CF9108958F929F92AF923E
S11321C0BF92CF92DF92EF92FF92CF93DF93EC0115
S11321D0688179818A819B816115710581059105E9
S11321E021F464E279ED8BE597E02DE133EF41E0F2
S11321F050E08DDE49015A019B01AC01A7EAB1E42C
S1132200B1DE6B017C01ACEEB4EFA50194011BD7E8
S1132210DC01CB018C0D9D1DAE1DBF1DB7FF03C09E
S11322200197A109B04888839983AA83BB839F77C8
S1132230DF91CF91FF90EF90DF90CF90BF90AF9060
S11322409F908F900895B9CF86E092E0B6CFA0E03A
S1132250B0E08093060290930702A0930802B09323
S11322600902089542EC52E041C0FB01DC0102C0C6
S113227001900D9241505040D8F70895FC0181918E
S1132280861721F08823D9F7992708953197CF012C
S11322900895FB01DC018D91019080190110D9F39F
S11322A0990B0895FB01DC0101900D920020E1F7E8
S11322B00895FB01DC014150504030F08D910190B4
S11322C0801919F40020B9F7881B990B0895FB01B4
S11322D0DC014150504048F001900D920020C9F7B4
S11322E001C01D9241505040E0F70895FA01A191B8
S11322F0B081009719F41097E1F0CD01DC01CD0114
S11323000D90002011F4C00113C0FB012191222380
S113231019F02015D9F7F3CFFB012191201519F4F9
S11323201E92119606C02223C1F70D900020A1F73A
S1132330D001FA01A193B0830895CF93DF93CDB771
S1132340DEB7AE014A5F5F4FFA0161917191AF014F
S11323508091961A9091971A90D0DF91CF91089519
S11323600F931F93CF93DF93E091961AF091971AEE
S1132370238121FF1BC08C01D0E0C0E0F8018191D2
S11323808F016091961A7091971ADB011896ED915E
S1132390FC911997882331F01995892B79F3DFEF94
S11323A0CFEFECCF8AE01995892B19F08FEF9FEFCF
S11323B002C08D2F9C2FDF91CF911F910F91089513
S11323C00F931F93CF93DF93CDB7DEB72E970FB63E
S11323D0F894DEBF0FBECDBF0E891F89888D998DFD
S11323E026E02C831A83098397FF02C080E090E8DB
S11323F001979E838D83AE01445E5F4F6A8D7B8D12
S1132400CE0101963AD04D815E8157FD0AC02F81DD
S11324103885421753070CF49A01F801E20FF31FB1
S113242010822E960FB6F894DEBF0FBECDBFDF919B
S1132430CF911F910F910895CF93DF93CDB7DEB75E
S11324402E970FB6F894DEBF0FBECDBF85E08C8308
S11324508C899D899A838983AE01485E5F4F6E891A
S11324607F89CE010196B8D32E960FB6F894DEBFBD
S11324700FBECDBFDF91CF9108952F923F924F921F
S11324805F926F927F928F929F92AF92BF92CF9200
S1132490DF92EF92FF920F931F93CF93DF93CDB709
S11324A0DEB72B970FB6F894DEBF0FBECDBF6C011D
S11324B07B018A01FC0117821682838181FFBFC1DF
S11324C0CE0101963C01F6019381F70193FD8591BC
S11324D093FF81917F01882309F4ADC1853239F4DA
S11324E093FD859193FF81917F01853221F4B6019B
S11324F090E0F0D4E8CF912C212C312CFFE1F3159E
S1132500D8F08B3279F038F4803279F08332A1F448
S1132510232D20611DC08D3261F0803369F4232D99
S1132520216016C0832D8260382EE32DE4603E2E98
S11325302AC0F32DF8601DC037FC2DC020ED280FF4
S11325402A3040F08E32B9F436FC75C1232D206454
S1132550322E19C036FE06C08AE0989E200D112442
S1132560922E11C0EAE02E9E200D1124222EF32D6E
S1132570F0623F2E08C08C3621F4832D8068382EFB
S113258002C0883641F4F70193FD859193FF819150
S11325907F018111B3CF982F9F7D9554933028F4F8
S11325A00C5F1F4F9FE399830DC0833631F083374F
S11325B071F0833509F055C020C0F801808189830A
S11325C00E5F1F4F88248394912C530112C028015D
S11325D0F2E04F0E511CF801A080B18036FE03C01A
S11325E0692D70E002C06FEF7FEFC5012AD44C0162
S11325F08201F32DFF773F2E15C0280122E0420E01
S1132600511CF801A080B18036FE03C0692D70E032
S113261002C06FEF7FEFC50109D44C01F32DF068C0
S11326203F2E820133FC19C0822D90E08816990652
S1132630A0F4B60180E290E04DD42A94F5CFF501E0
S113264037FC859137FE81915F01B60190E042D459
S113265021102A9421E0821A91088114910479F7B7
S1132660E1C0843611F0893639F5F80137FE07C028
S113267060817181828193810C5F1F4F08C06081EA
S11326807181072E000C880B990B0E5F1F4FF32DE1
S1132690FF763F2E97FF09C09095809570956195C0
S11326A07F4F8F4F9F4FF0683F2E2AE030E0A30109
S11326B066D4882E861844C0853731F4232D2F7EA6
S11326C0B22E2AE030E025C0932D997FB92E8F36A3
S11326D0C1F018F4883579F0AEC0803719F0883726
S11326E021F0A9C0E92FE061BE2EB4FE0DC0FB2D80
S11326F0F460BF2E09C034FE0AC0292F2660B22E12
S113270006C028E030E005C020E130E002C020E14E
S113271032E0F801B7FE07C0608171818281938144
S11327200C5F1F4F06C06081718180E090E00E5FF6
S11327301F4FA30124D4882E8618FB2DFF773F2E2C
S113274036FE0DC0232D2E7FA22E891458F434FE9C
S11327500BC032FC09C0832D8E7EA82E05C0B82C78
S1132760A32C03C0B82C01C0B92CA4FE0FC0FE01D9
S1132770E80DF11D8081803321F49A2D997EA92ED4
S113278009C0A2FE06C0B394B39404C08A2D86780F
S113279009F0B394A3FC10C0A0FE06C0B21480F4E8
S11327A0280C922C9B180DC0B21458F4B60180E288
S11327B090E090D3B394F8CFB21418F42B1802C05D
S11327C0982C212CA4FE0FC0B60180E390E082D3A4
S11327D0A2FE16C0A1FC03C088E790E002C088E511
S11327E090E0B6010CC08A2D867851F0A1FE02C09B
S11327F08BE201C080E2A7FC8DE2B60190E06AD3CF
S1132800891430F4B60180E390E064D39A94F8CF4D
S11328108A94F301E80DF11D8081B60190E05AD34A
S11328208110F6CF222009F44ECEB60180E290E06A
S113283051D32A94F7CFF6018681978102C08FEF96
S11328409FEF2B960FB6F894DEBF0FBECDBFDF917E
S1132850CF911F910F91FF90EF90DF90CF90BF9099
S1132860AF909F908F907F906F905F904F903F902C
S11328702F90089520FD09C0FC0123FD05C022FF0F
S113288002C07383628351834083089544FD17C05B
S113289046FD17C0AB01BC01DA01FB01AA0FBB1F47
S11328A0EE1FFF1F1094D1F74A0F5B1F6E1F7F1F8F
S11328B0CB01BA01660F771F881F991F09C033E047
S11328C001C034E0660F771F881F991F3150D1F77C
S11328D0620F711D811D911D08950F931F93CF9356
S11328E0DF938C01C801B8D2EC0197FD06C08BD2EE
S11328F0892BC1F7B801CE0129D3CE01DF91CF9145
S11329001F910F9108958F929F92AF92BF92EF9271
S1132910FF920F931F93CF93DF938C01D62F7A01ED
S1132920B22E9AD29C0133272B32310531F02D324D
S1132930310559F48B2D8068B82ED15011F480E004
S113294061C0C80189D297FDFACFCB2DCD7F2B2D45
S11329502073F9F48033E9F4AA24AA94AD0E09F49F
S11329603EC0C80179D297FD3AC09C012F7D332720
S11329702835310541F4C264D25089F1C8016CD2C2
S113298097FF07C02CC0B6FE02C0C26001C0C2617E
S1132990DA2D812C912C540120ED280F283078F069
S11329A0C4FF03C0B801D2D217C02A3040F0C6FF1A
S11329B0F9CF2F7D3FEE320F3630A0F727504C2F42
S11329C0C501B40163DF4B015C01C260D15051F019
S11329D0C80142D297FFE0CFC1FD04C0B0CF812C23
S11329E0912C5401C7FF08C0B094A0949094809493
S11329F0811C911CA11CB11C2C2FB501A401C70181
S1132A0039DF81E0DF91CF911F910F91FF90EF901B
S1132A10BF90AF909F908F9008955F926F927F9236
S1132A208F929F92AF92BF92CF92DF92EF92FF92DA
S1132A300F931F93CF93DF93CDB7DEB7A0970FB655
S1132A40F894DEBF0FBECDBF5C01962E7A01F9016A
S1132A508E010F5F1F4F680180E2D8011D928A9595
S1132A60E9F7D50113968C9080E090E0612C712CED
S1132A7030E061E070E083FC259183FE21918F01B9
S1132A80522E211103C080E090E090C02E3511F445
S1132A90009751F1432F50E0481759073CF42D3566
S1132AA059F12D3219F4772009F103C0772009F484
S1132AB068C0452D469546954695D601A40FB11D8F
S1132AC0452D47708B0102C0000F111F4A95E2F794
S1132AD0A8015C91452B4C93651459F0561410F4DD
S1132AE05394E7CF5A94E5CF31E004C0772473942C
S1132AF001C0712C0196BFCF772019F08E818062BE
S1132B008E83311103C08824839417C0F6019E017B
S1132B102F5D3F4F8081809581932E173F07D1F71A
S1132B20F2CFE114F10429F0D7018C93F701319627
S1132B307F019A94812C9920E9F0C5018DD197FDEC
S1132B4017C0FC01FF2723E0F595E7952A95E1F7E7
S1132B50EC0DFD1D208130E0AC014770552702C00B
S1132B60359527954A95E2F720FDDBCFB501EED1E7
S1132B70811089CFE114F10411F0D7011C92C8012E
S1132B8015C0422F469546954695D601A40FB11D12
S1132B90422F47708B0102C0000F111F4A95E2F7C4
S1132BA0A8015C91452B4C93622EA4CFA0960FB63E
S1132BB0F894DEBF0FBECDBFDF91CF911F910F916F
S1132BC0FF90EF90DF90CF90BF90AF909F908F9049
S1132BD07F906F905F9008955F926F927F928F9233
S1132BE09F92AF92BF92CF92DF92EF92FF920F9398
S1132BF01F93CF93DF936C01EB015A01FC01178201
S1132C001682512CF601E380FE01E3FC8591E3FE7C
S1132C108191182FEF01882309F4E0C090E0F3D0EC
S1132C20892B19F0C60159DEEDCF153241F4FE01AE
S1132C30E3FC1591E3FE1191EF01153271F4C60125
S1132C400BD197FDC9C0412F50E09C0133272417B5
S1132C503507C1F2B6017AD1C1C01A3239F4E3FCA6
S1132C601591E3FE1191EF0101E001C000E0F12CA8
S1132C7020ED210F2A3078F402606F2D70E080E09F
S1132C8090E040E203DEF62EFE01E3FC1591E3FE44
S1132C901191EF01EDCF01FF03C0F11003C09EC0FD
S1132CA0FF24FA94183619F01C3651F010C0FE01B6
S1132CB0E3FC1591E3FE1191EF01183641F408602D
S1132CC00460FE01E3FC1591E3FE1191EF01112371
S1132CD009F484C0612F70E084E391E09CD0892BD7
S1132CE009F47CC000FD07C0F50180809180C50116
S1132CF002965C0102C0812C912C1E3649F4F60127
S1132D004681578160E070E0202FC401B3DD7ACFA3
S1132D101336A1F401FD02C0FF24F394C6019CD034
S1132D2097FD5AC08114910429F0F4018083C401F1
S1132D3001964C01FA94F110F1CF4AC01B3551F4BD
S1132D409E01A4016F2DC60168DEEC01892B09F0F8
S1132D503FC039C0C601C1DD97FD3EC01F3649F1F1
S1132D6028F4143621F1193639F125C0133771F0DE
S1132D701537E9F020C08114910429F0F401608230
S1132D80C40101964C01FA94FF2059F0C60164D0A5
S1132D903C0197FD06C037D0892B69F3B601C30106
S1132DA0D5D081149104A1F0F401108211C0006205
S1132DB003C0006101C00064202FA4016F2DC6016F
S1132DC0A2DD811105C0F6018381807329F406C058
S1132DD000FD18CF539416CF552019F0852D90E09F
S1132DE002C08FEF9FEFDF91CF911F910F91FF9062
S1132DF0EF90DF90CF90BF90AF909F908F907F9097
S1132E006F905F900895911118C1803219F0895024
S1132E108550D0F70895FC010590061621F0002096
S1132E20D9F7C00108953197CF010895FC010590A9
S1132E30615070400110D8F7809590958E0F9F1FB8
S1132E400895FC016150704001900110D8F78095FD
S1132E5090958E0F9F1F0895CF93DF93EC012B81E4
S1132E6020FF33C026FF0AC02F7B2B838E819F81D6
S1132E7001969F838E838A8190E029C022FF0FC030
S1132E80E881F9818081082E000C990B009719F4D0
S1132E9020622B831AC03196F983E8830EC0EA8539
S1132EA0FB85199597FF09C02B81019611F080E2EB
S1132EB001C080E1822B8B8308C02E813F812F5F6C
S1132EC03F4F3F832E83992702C08FEF9FEFDF91FF
S1132ED0CF9108950F931F93CF93DF93FB01238129
S1132EE021FD03C08FEF9FEF2CC022FF16C0468147
S1132EF05781248135814217530744F4A081B1815D
S1132F009D012F5F3F4F318320838C93268137812E
S1132F102F5F3F4F3783268314C08B01EC01FB01E5
S1132F200084F185E02D1995892BE1F6D8011696D8
S1132F308D919C911797019617969C938E93169753
S1132F40CE01DF91CF911F910F910895FB01238151
S1132F5020FF12C026FD10C08F3F3FEF930761F0A2
S1132F6082832F7D20642383268137812150310978
S1132F7037832683992708958FEF9FEF0895FA01E9
S1132F80AA27283051F1203181F1E8946F936E7FA4
S1132F906E5F7F4F8F4F9F4FAF4FB1E03ED0B4E095
S1132FA03CD0670F781F891F9A1FA11D680F791FD6
S1132FB08A1F911DA11D6A0F711D811D911DA11DE7
S1132FC020D009F468943F912AE0269F11243019F7
S1132FD0305D3193DEF6CF010895462F4770405D92
S1132FE04193B3E00FD0C9F7F6CF462F4F70405D41
S1132FF04A3318F0495D31FD4052419302D0A9F79C
S1133000EACFB4E0A6959795879577956795BA9595
S1133010C9F700976105710508959B01AC010A2E5B
S113302006945795479537952795BA95C9F7620F32
S1133030731F841F951FA01D08959927882708953D
S1133040B7FF0C94B20F0E94B20F821B930B08952A
S1073050F894FFCF1E
S113305400009A1A20000100000000000002000091
S11330640000590F000000003F3F3A3F3F3A3F3F02
S11330742C3F3F3F205554430000000041434B2C58
S11330840041434B2C5452503D2568752C545352E3
S11330943D25687500525454203D20256C642074E9
S11330A469636B732028256C75206D73292C205457
S11330B46F46203D20256C64207469636B7320285B
S11330C4256C75206D73290D0A0053544152542004
S11330D44D41535445522053594E430D004361739B
S11330E4207A204750533A2025730D0A0053594E31
S11330F4432C25732C5453503D25750047504747A2
S1133104410025733A25733A25732C2573205554AD
S1053114430072
S9030000FC
