:1000000099C00000B7C00000B5C00000B3C0000038
:10001000B1C00000AFC00000ADC00000ABC0000028
:10002000A9C00000A7C00000A5C00000A3C0000038
:10003000A1C00000ADC100009DC000009BC0000039
:1000400099C0000097C0000095C0000093C0000058
:1000500091C000008FC000008DC000008BC0000068
:1000600089C0000087C0000085C0000083C0000078
:1000700081C000007FC000007DC000007BC0000088
:1000800079C0000077C0000075C0000073C0000098
:10009000FFC10000E1C100006DC000006BC00000A6
:1000A00069C0000067C0000062C1000063C00000BA
:1000B00061C000005FC000005DC000005BC00000C8
:1000C00059C0000057C0000055C0000053C00000D8
:1000D00051C000004FC000004DC000004BC00000E8
:1000E00049C0000047C0000045C0000043C00000F8
:1000F00041C000003FC000003DC000003BC0000008
:1001000039C0000037C0000035C0000033C0000017
:1001100031C000002FC000002DC000002BC0000027
:1001200029C0000027C0000025C0000023C0000037
:1001300021C0000011241FBECFEFD1E8DEBFCDBF2C
:1001400000E00CBF12E0A0E0B2E0E2EAF4E200E07E
:100150000BBF02C007900D92AE34B107D9F729E169
:10016000AEE4B2E001C01D92AC36B207E1F7AED00A
:100170000C944F1245CFCF93DF93009751F0EC01D1
:100180008A859B85009711F00E940F0ECE010E9478
:100190000F0EDF91CF910895CF93DF93FC0121855E
:1001A000222309F477C0EC0145E050E068E172E0F9
:1001B000878190850E94F60E892B09F06DC0E4E8D6
:1001C000F0E080819181909351028093500287ECFE
:1001D00090E00197F1F700C0000080819181909339
:1001E0004F0280934E0288858F938F818F938EE18B
:1001F00092E09F938F930E94040F80E490E00E940E
:10020000770DEC010F900F900F900F90892B09F450
:1002100045C020914E0230914F0280915002909142
:1002200051023F932F939F938F9380E392E09F938C
:100230008F931F9280E48F93DF93CF930E94470F99
:1002400081E190E00E94770DFC018DB79EB70A9680
:100250000FB6F8949EBF0FBE8DBF309729F4CE0124
:100260000E940F0E80E01BC01682158281E08783FA
:1002700080871186D387C287DE010D900020E9F7C1
:10028000AC1BA4878BEB90E096878587CF01F4D1D8
:1002900081E005C081E003C081E001C080E0DF9122
:1002A000CF91089580E096E90E94FB0C80E096E9EA
:1002B0000C94100D089508951092800083E08093AF
:1002C000810010928500109284000895EBDFF4DF26
:1002D0000E94F60B60E076E980E090E068D08AE06A
:1002E00092E0909369198093681981E090E081D140
:1002F00081E192E385D18FE00E94250B81E00E948D
:10030000210B6CEC70E081E082D182E492E00E94EB
:10031000170F78940E94FD0B12D1FCCF14BE0FB6BC
:10032000F894A89580916000886180936000109295
:1003300060000FBEE1E6F0E080E8808310827894F0
:1003400001C008951092391980E197E29093A900B5
:100350008093A800E1EAF0E088E0808380818260F9
:100360008083E2E7F0E080818260808308951F92BD
:100370000F920FB60F9211248F93809139198F5FCE
:10038000809339198F910F900FBE0F901F90189581
:100390001F920F920FB60F9211248F9381E08093DA
:1003A00052028F910F900FBE0F901F901895DC0195
:1003B000CB01880F991FAA1FBB1F880F991FAA1F67
:1003C000BB1F9C01AD01220F331F441F551F220F7D
:1003D000331F441F551F60E074E284EF90E00E94D9
:1003E000390DBA01A9014150510961097109BB27B1
:1003F000A72F962F852F8093CD004093CC0082E0CD
:100400008093C80088E98093C90086E08093CA0081
:10041000E1E8F5E080EF93E09187808780E991E063
:10042000958384831782168211821082138212822E
:10043000E6EEF3E025E532E031872087958384837B
:1004400017821682118210821382128281E08093B9
:1004500054021092530208951F920F920FB60F92FA
:1004600011240BB60F928F93EF93FF9381E080934B
:100470005402E9ECF0E080818F7D8083FF91EF9161
:100480008F910F900BBE0F900FBE0F901F9018957D
:100490001F920F920FB60F9211240BB60F922F934B
:1004A0003F934F935F936F937F938F939F93AF93FC
:1004B000BF93EF93FF938091C8002091CE008C7181
:1004C00059F5E6EEF3E0468157818481958148171E
:1004D000590711F14085518582819381BC016F5F7D
:1004E0007F4F73836283DA01A80FB91F2C93228197
:1004F0003381848195812817390721F41092E9030B
:100500001092E803E6EEF3E08681978101969783E7
:10051000868381E080935302FF91EF91BF91AF9169
:100520009F918F917F916F915F914F913F912F910B
:100530000F900BBE0F900FBE0F901F9018958091DB
:10054000870590918805009769F120915402222334
:1005500049F1E1E8F5E06085718520813181A901EB
:100560004F5F5F4F51834083DB01A20FB31F2C917C
:10057000648175814617570721F410928205109205
:100580008105019790938805809387059FB7F8941C
:100590002093CE00E9ECF0E08081806280831092AD
:1005A00054029FBF2FB7F8949091530210925302B8
:1005B0004091EC035091ED032FBF992311F0CA0134
:1005C0007ACE0895EAE3F9E114821582118210824D
:1005D00017A216A2E0E4F9E180E699E111921192E6
:1005E000E817F907D9F743D660D30DD140D092C1AF
:1005F000089590933B1980933A190C943B0B0895FE
:1006000090933D1980933C190C94290B0895E82F81
:10061000F0E0EE0FFF1FE05CF64E718360830895FB
:100620008CD321D74DC00895E0918B05F0918C05B6
:100630003097D9F0228133818217930789F405C05E
:10064000228133812817390759F4DC01AD57BF4F98
:100650002C91278713962C91208B22E0248305C0B0
:100660000190F081E02D309759F711C10895109253
:100670008C0510928B050895FC0114821786138255
:100680001282AAE3B9E196968D919C919797019673
:1006900097969C938E93969780918B0590918C055D
:1006A000009739F411821082F0938C05E0938B054A
:1006B000089591838083F0938C05E0938B050895D2
:1006C0000F931F93CF93DF93E0918B05F0918C05EF
:1006D000309709F493C0EF018C81882321F0823098
:1006E00009F466C085C09AD08C01009721F482E09D
:1006F0008C838F8783C09B838A8381E08C83F801FE
:10070000E957FF4F84E193E0918380833197898596
:1007100082FB882780F980839985D8011B968C916C
:100720001B9790FB80F91B968C931B97998593FBE5
:10073000992790F990FB82F91B968C931B97EAE31B
:10074000F9E184818F5F84831C968C931C97808150
:1007500091811E969C938E931D978D819E815096BC
:100760009C938E931F978885982F9F7051968C919C
:100770005197807F892B51968C9351979F819295A9
:10078000907F8F70892B51968C93F801EF57FF4F14
:100790004C8550E06A857B85808191810E94ED0EB9
:1007A000F80191818C85890F8183C80183D526C08A
:1007B000EC17FD0741F48081918190938C05809323
:1007C0008B050AC0FC01808191818C179D07D1F7B0
:1007D0008881998191838083EAE3F9E186A197A1D9
:1007E000019797A386A3ED85FE85CE01199506C0D6
:1007F0000990D881C02D209709F06ECFDF91CF915D
:100800001F910F910895EDE8F5E08BE995E11082D5
:10081000E757FF4FE817F907D1F7089580918D0545
:10082000882359F0E6E1F6E06BE975E181E090E0BC
:10083000AC012081211122C002C040E050E069E8F3
:10084000649F9001659F300D1124C90183579A4F11
:10085000FC0111926A95E9F740E1FC014183EF57F1
:10086000FF4F21563A4F31832083EAE3F9E126A175
:1008700037A12F5F3F4F37A326A308950196E7576F
:10088000FF4FE617F707A1F680E090E00895FC011E
:100890001082EAE3F9E186A197A1019797A386A3C5
:1008A0000895009741F0FC01E757FF4F85E1EB39D0
:1008B000F80718F012C0EDE8F5E08081882321F0F8
:1008C0000FC0808181110FC0E757FF4F85E1EB39E1
:1008D000F807B8F380E090E0089580E090E0089594
:1008E0008E2F9F2F08958E2F9F2F0895FC01DC01DE
:1008F000AD57BF4F1C92AAE3B9E114969C9114978F
:100900009F5F14969C93149794878D919C919687E2
:1009100085870895ACE9B5E180E090E04FEF5FEFA7
:1009200011965C934E93FC01EE0FFF1FEE0FFF1F1D
:10093000EE0FFF1FE81BF90BE556FA4E20812E7FC4
:10094000208314961C92149701961796843691056D
:1009500039F708950F931F93CF93DF93ECE9F5E1F7
:1009600020E030E0062F10E0408151814817590700
:10097000B1F4D901AA0FBB1FAA0FBB1FAA0FBB1F3F
:10098000A21BB30BA556BA4E4C9146954170C42F8D
:1009900040E0D42FC017D10711F4CD0108C02F5F5C
:1009A0003F4F379624363105F9F680E090E0DF912D
:1009B000CF911F910F910895A0E0B0E0EBE9F5E130
:1009C000808180FD0DC08581882381F0109739F0EA
:1009D00015969C911597891718F4DF0101C0DF0166
:1009E000379688E1E735F80759F7FD0180818D706A
:1009F0008063808380E88583CF010895FC01808136
:100A000080FD05C08FEF9FEF92838183158208954B
:100A1000A1DF009721F0FC018381948108958FEF7D
:100A20009FEF089597DF009709F0E8CF08950F939F
:100A30001F93CF93DF93FC010185128511232CF4C2
:100A40008585968508171907E1F5858196810196B8
:100A5000C1F1EF0160E0858596857CDFFC01892B83
:100A6000A1F08F8198850196F9F420913A1930917F
:100A70003B198F85988928173907B1F414830383AC
:100A800080818F70806380830AC096DFFC018D8532
:100A90009E859283818389859A8594838383CD57AC
:100AA000DF4F888186830DC08381948108171907E1
:100AB000B1F39681DE01AD57BF4F8C919817F0F2DC
:100AC000EECFDF91CF911F910F910895CF93DF93D8
:100AD000FC01878590898F3F2FEF9207D9F1EF01B5
:100AE000638563FB662760F935DFDC01892B91F1B3
:100AF0008C9180FD2FC0FE01ED57FF4F8081811149
:100B000019C08C918F7080638C9315968C9115977A
:100B10008F5F15968C938F3FE9F4E0EAF5E12CE5C1
:100B200038E1808186958F5F80833796E217F307DF
:100B3000C1F710C09C91892F82958F70815F8F7053
:100B4000282F2295207F9F70922B9C93811102C0A9
:100B5000CD0154DFDF91CF910895CF93DF93FC0156
:100B6000878590898F3F2FEF920729F48FEF9FEFB2
:100B7000908787830EC0238522FF03C090878783D9
:100B800008C0EF01638563FB662760F941DF988742
:100B90008F83DF91CF910895AF92BF92CF92DF9272
:100BA000EF92FF921F93CF93DF93EC011B8513FB12
:100BB000112710F9CF84D888612FC60129DF01964B
:100BC00059F0FE01E957FF4F11821082319782E000
:100BD0008083CE016FD322C0AD84BE841FDE7C0132
:100BE0000097D1F083DEF70181818A5F8183E95725
:100BF000FF4F11821082F701B08AA786EF57FF4F8F
:100C00000190F081E02D81E08083B282A182D482C4
:100C1000C3821583C7014ED3CE0139DEDF91CF9158
:100C20001F91FF90EF90DF90CF90BF90AF9008950D
:100C3000FC012185263049F40780F085E02D65818F
:100C400083819481EFDE81E0089580E00895DC01E6
:100C500019962C911997222371F01796ED91FC911A
:100C600018972081222319F0213019F006C0B3C350
:100C70000895DECF089580E0089580E00895BC01D6
:100C8000E9E6F8E12BE938E140E051E09081992371
:100C900019F091509083452F3596E217F307B1F77D
:100CA000442311F0CB0131C60895E9E6F8E18BE960
:100CB00098E110823596E817F907D9F7E7E5F8E1EA
:100CC00084E690E0A0E0B0E086839783A087B187B8
:100CD00012868FE396E09487838767E276E080E070
:100CE00096CC0895CF93DF93DC01ED91FC911197A1
:100CF00021812838F9F420812F7D2134D9F41296EE
:100D00002C912031B8F0EC0189DD009799F020E2B8
:100D1000FC0120832A8121832B81ED57FF4F208303
:100D20002C81319620834A8150E068817981029636
:100D30000E94ED0EDF91CF9108952F923F924F9236
:100D40005F926F927F928F929F92AF92BF92CF925B
:100D5000DF92EF92FF920F931F93CF93DF93CDB764
:100D6000DEB72C970FB6F894DEBF0FBECDBF00E004
:100D700010E00F2EF4E2BF2EF02D0F2EFAE3EF2E2F
:100D8000F9E1FF2EF02D552453946894AA24A4F879
:100D90006894772473F86894662462F8312C212CC7
:100DA0000F2EFFE14F2EF02DCC24C394D12CDAC1AD
:100DB000D8018C91823209F405C118F4803241F0D7
:100DC000D1C1833209F4C9C1843209F4C9C1CAC18D
:100DD000F801B0828385982F9A7009F0C3C12581EC
:100DE00036812F3F3F4F91F4D8011F968D919C91F2
:100DF0005097F701208131812817390719F00196A2
:100E000009F0B0C1E2E2D801EC93ACC1D8011F9661
:100E10002D913C9150972F3F3F4F11F480FDA2C17F
:100E2000F70120813181D8011D968D919C911E97EB
:100E30002817390709F496C1C801F9DDE5E6F8E19C
:100E400080E090E0832C922C9C014481442309F49F
:100E500074C0D8011D966D917C911E97408151817F
:100E60006417750709F06AC01C968C911C97F901EC
:100E7000EE0FFF1FEE0FFF1FE20FF31FEB59F74EB0
:100E80009281981B983008F03EC0F901EE0FFF1FC9
:100E9000EE0FFF1FE20FF31FEB59F74E8381482F30
:100EA00050E0092E02C0559547950A94E2F740FF9D
:100EB00017C0F7012081318117968D919C91189769
:100EC0002817390709F04EC11B966C911B9763FBDD
:100ED000662760F91F968D919C915097A3DD42C1C2
:100EE000F901EE0FFF1FEE0FFF1F2E0F3F1FF9013D
:100EF000EB59F74E960102C0220F331F9A95E2F785
:100F0000822B838336C1F901EE0FFF1FEE0FFF1F07
:100F10002E0F3F1FF901EB59F74E82838381282F53
:100F200030E09195A90102C0440F551F9A95E2F750
:100F3000CA018160838344821CC14F0101963596AA
:100F40008A30910509F080CF8114910409F40AC117
:100F5000D8011D968D919C911E97F40191838083F9
:100F60001C968C9182835382448287E598E1CDD48C
:100F700000C1D7012D913C91F801878590892817F0
:100F8000390781F0438542FD0BC0C801E1D1D7018B
:100F90002D913C91F801878590892817390711F028
:100FA000019621F4E2E2D801EC93DCC0D801179657
:100FB0008D919C9118978217930709F0D3C0E3E2B3
:100FC000EC93D0C010926418D80151968C9151972F
:100FD00082958F70E82FF0E0EE0FFF1FE05CF64E79
:100FE0000190F081E02D309709F460C01D962D919D
:100FF0003C911E973A8329831F964D915C9150979F
:101000005C834B8351969C9151979F709D838E83F7
:10101000AF57BF4F8D919C9199878887B8016E5FBC
:101020007F4F861B970BD80111969C911197981BA7
:101030009A87AD57BF4F8C918B8711968C918C8777
:10104000D8011B969C91692F637092FD02C080E0CD
:1010500001C080E2862B93FD02C090E001C090E4C5
:10106000892B4F3F5F4F11F090E001C0962D892BE7
:10107000D80119964D915C911A972417350711F0F4
:1010800090E001C0972D892B8F83D80115962D9163
:101090003C9116972F3F3F4F11F090E001C09A2DE1
:1010A000892B8F83CE010196199501C080E0F8014C
:1010B000938590FF80E0D80117962D913C91189769
:1010C0002F3F3F4F69F4F70140815181D8011F96AE
:1010D0002D913C9150974217530711F493FF852DA2
:1010E000F801258136812F3F3F4FA1F1D7012D9186
:1010F0003C912F3F3F4F71F1882361F18FDB4C0111
:10110000009741F1F3DBF40181818D5F8183E95721
:10111000FF4F11821082D8011B968C911B978695E8
:101120008170F401938580FB91F993871D968D91D1
:101130009C911E97908B8787EF57FF4F0190F0810E
:10114000E02D10828091641882831C968C9181839B
:10115000C401B0D0D801BC9205C0C8011DDD02C0D9
:10116000C80195DBC8019DDB8C01892B09F020CEDD
:1011700007C0F80187819085019609F008CFF9CE64
:101180002C960FB6F894DEBF0FBECDBFDF91CF9186
:101190001F910F91FF90EF90DF90CF90BF90AF9095
:1011A0009F908F907F906F905F904F903F902F9087
:1011B0000895EF92FF920F931F93CF937C0110E05D
:1011C00080E090E001E0C3E113C0FC012081213107
:1011D00079F4EC57FF4F208131812150310931835F
:1011E0002083232B21F4FC01C083102F01C0102F7A
:1011F00058DB009751F7112311F0C70186D3CF9127
:101200001F910F91FF90EF900895EF92FF920F932F
:101210001F93CF93DF937C0110E080E090E001E02A
:10122000D7E1C0E116C0FC012081263191F4EC57D2
:10123000FF4F208131812150310931832083232BBD
:1012400039F4FC01D083ED57FF4FC083102F01C04C
:10125000102F27DB009739F7112311F0C70155D361
:10126000DF91CF911F910F91FF90EF900895109211
:10127000B2181092B118E4EAF8E182E390E0A0E03D
:10128000B0E086839783A087B187128685E099E0D6
:1012900094878387E7E9F8E18AE090E0A0E0B0E096
:1012A00086839783A087B187128689ED98E094871B
:1012B00083870895CF93DF93EC01FC01EA57FF4F3A
:1012C000808181FF03C092E1988302C092E19883FC
:1012D000FE01ED57FF4F108280FF05C02FEF3FEF5B
:1012E0003E832D8306C020913C1930913D193E83E9
:1012F0002D83857019F4CE0130DC04C08F85988968
:1013000098878F83EAE3F9E1808191819A878987C1
:1013100085818F5F85838C838F819885019669F4A1
:1013200081E498E89B838A834AD5CC57DF4F877046
:10133000992701969983888308C081E698E89B8362
:101340008A83CC57DF4F19821882DF91CF9108959D
:101350000F931F93CF93DF938C0160DAEC01892BFD
:10136000A9F182E18883F80181818983FE01ED572B
:10137000FF4F108224D5FE01EC57FF4F877099274D
:10138000019691838083339611821082F801418106
:1013900050E0B8016E5F7F4FCE0102961ED581E40A
:1013A00098E89B838A838FEF9FEF98878F83F8015C
:1013B000858196819E838D83EAE3F9E18081918125
:1013C0009A87898785818F5F85838C83DF91CF9111
:1013D0001F910F910895CF93DF93FC012185233056
:1013E000D9F410C0FC012081263189F4348529818B
:1013F00032130DC027E120832A81EA57FF4F208353
:1014000081E00BC0FC01C781D08580E090E049DA23
:10141000009741F780E001C080E0DF91CF9108950F
:10142000E091B118F091B218813021F048F082308B
:1014300019F004C080E205C081E203C081E001C070
:1014400080E0DF01AD57BF4F8C9385E18083109220
:10145000B2181092B118EAE3F9E186A197A10197B9
:1014600097A386A308959F92AF92BF92CF92DF92E7
:10147000EF92FF920F931F93CF93DF93C0E0D0E0E2
:101480000F2EF4E1AF2EF02D0AE319E10F2EF7E154
:10149000DF2EF02D0F2EF6E19F2EF02D0F2EF9E20C
:1014A000EF2EF12CF02D0F2EF3E1CF2EF02D0F2E7D
:1014B000F1E1BF2EF02D60C088818331C1F018F4B6
:1014C000823139F059C0853149F1873109F445C07D
:1014D00053C0FE01EC57FF4F80819181892B29F089
:1014E000B88287E998E111D247C0C88245C080918F
:1014F000B1189091B218892B09F03EC0D093B21860
:10150000C093B118A8826981CE010296CBD0F801B0
:1015100086A197A1019697A386A32EC0FE01ED5741
:10152000FF4F8081811117C02D853E85F801808194
:1015300091812817390769F48B8580FF0AC098824A
:10154000FE01EC57FF4FF182E08284EA98E1DDD1A1
:1015500013C0D88211C0D8820FC0CE01B7DAFE0105
:10156000E957FF4F0190F081E02D309719F4CE013B
:101570008ED902C0CE011995CE0193D9EC01892BE9
:1015800009F09ACFDF91CF911F910F91FF90EF90CB
:10159000DF90CF90BF90AF909F9008958091B31847
:1015A000982F9F70E4E5F1E08081807F892B808314
:1015B0008091B318882329F08091B4188093530147
:1015C00008958091B418982F9F71E8E4F1E080812C
:1015D000807E892B8083089593E090934201E1E41B
:1015E000F1E090819F719830E1F780934201E1E44E
:1015F000F1E090819F718913FCCF089588E0ECDFC2
:101600008FEF80934F018091B518882311F086E108
:10161000E3CF0895E9E3F1E0808181608083109257
:10162000B5181092B31881E08093361988E0D4DFA2
:101630008BEE80935601ECE4F1E08081806880833A
:1016400008958093B518DACF08958093B418A6CF83
:101650000895CF93DF931F921F92CDB7DEB79A8381
:101660008983809362018A81809363010F900F9038
:10167000DF91CF910895CF93DF931F921F92CDB743
:10168000DEB79A838983809360018A8180936101A8
:1016900099818A81890F80936D010F900F90DF915E
:1016A000CF9108951F93CF93DF93182FD92FC62F73
:1016B00089E192DF8FEF80934F0182E08C0F80935E
:1016C0008001CC2371F0A12FBD2FC1506C2F70E091
:1016D0006E577E4FE1E8F1E08D918193E617F707B1
:1016E000D9F783E08093361982E080934201DF913D
:1016F000CF911F9108951F93CF93DF9300D01F9236
:101700001F92CDB7DEB780913619823009F465C0DB
:1017100080914F0183FF3EC0A0917B016A2F70E052
:10172000AB014F5F5F4F80E090E020E0FC01E058AC
:10173000FE4F3081FC01EA54F74E30832F5F822F39
:1017400090E08417950794F386EB98E19A83898358
:10175000A250AB83FB01EA54F74E80818C838091C9
:1017600047018A558D83CE010196BCDAE1E4F1E0B0
:1017700080818F718631E1F7EFE4F1E0808188604C
:101780008083ECE4F1E080818F77808380818068C2
:10179000808323C080914F0186FF1FC0809141014B
:1017A0008F718931A9F41091420112951695177025
:1017B00049F0133021F0153021F013E003C011E09F
:1017C00001C012E01BDF81E080933619812F28DEF3
:1017D000EFE4F1E08081806480830F900F900F90A0
:1017E0000F900F90DF91CF911F9108950E948E016D
:1017F0006DD010DF0C94E20208957DDF0E9410038B
:101800008FC008950F931F93CF93DF93EC018091C6
:10181000371990913819009709F445C04E815F81BE
:1018200068857985FC010281138124813581401707
:1018300051076207730760F0DC0117C00281138152
:1018400024813581401751076207730768F403C08C
:10185000FC01A0E0B0E0041B150B260B370B028344
:101860001383248335830AC0DF01401B510B620BB5
:10187000730BED91FC911197309701F74A835B83CD
:101880006C837D83109741F08D919C911197998382
:101890008883CD93DC9315C099838883D0933819BE
:1018A000C09337190EC0198218828E819F81A88536
:1018B000B9858A839B83AC83BD83D0933819C09349
:1018C0003719DF91CF911F910F9108951092381918
:1018D000109237190895E0913719F091381930971F
:1018E00071F0E817F90721F40CC08E179F0759F023
:1018F0000190F081E02D3097C1F780E0089580E0FD
:10190000089581E0089581E00895CF93DF93EC017D
:10191000E2DF811102C0CE0175DFDF91CF91089522
:10192000CF92DF92EF92FF92CF93DF93809139199C
:10193000882309F459C08FB7F894C09039191092D0
:1019400039198FBFD12CE12CF12CCC0CDD1CEE1CF5
:10195000FF1CD701C601880F991FAA1FBB1F880F44
:10196000991FAA1FBB1FC80ED91EEA1EFB1EC091DD
:101970003719D09138192097B9F18A819B81AC81B0
:10198000BD81C816D906EA06FB0610F1C81AD90AA5
:10199000EA0AFB0A88819981909338198093371954
:1019A0008A85813011F4CE012DDFEB85FC85CE01D7
:1019B0001995C0913719D09138192097A9F08A81CB
:1019C0009B81AC81BD81C816D906EA06FB06F0F6FC
:1019D0008A819B81AC81BD818C199D09AE09BF09AB
:1019E0008A839B83AC83BD83DF91CF91FF90EF907F
:1019F000DF90CF9008959C0140E050E060E271EAF2
:101A000087E090E058D0215031093093C5002093F1
:101A1000C40086E08093C20080E98093C1000895ED
:101A20009C0140E050E060E271EA87E090E043D042
:101A3000215031093093CD002093CC0086E0809373
:101A4000CA0088E08093C9000895E8ECF0E0908136
:101A500095FFFDCF8093CE000895CF93C82F8A3095
:101A600011F48DE0F2DF8C2FF0DF80E090E0CF9179
:101A70000895A1E21A2EAA1BBB1BFD010DC0AA1FCF
:101A8000BB1FEE1FFF1FA217B307E407F50720F0E7
:101A9000A21BB30BE40BF50B661F771F881F991F62
:101AA0001A9469F760957095809590959B01AC01AB
:101AB000BD01CF010895052E97FB16F400940FD0B9
:101AC00057FD05D0D6DF07FC02D046F408C050957C
:101AD0004095309521953F4F4F4F5F4F089590951A
:101AE0008095709561957F4F8F4F9F4F08950F930D
:101AF0001F93CF93DF938230910510F482E090E042
:101B0000E0916419F091651920E030E0A0E0B0E0C8
:101B1000309719F14081518102811381481759078B
:101B2000C8F08417950769F4109731F012960C935A
:101B3000129713961C9327C000936419109365198C
:101B400022C02115310519F04217530718F49A01E4
:101B5000BD01EF01DF01F801DBCF21153105F9F0FF
:101B6000281B390B2430310580F48A819B81611553
:101B7000710521F0FB019383828304C09093651962
:101B800080936419FE01329644C0FE01E20FF31FF8
:101B90008193919322503109398328833AC020914F
:101BA000621930916319232B41F420910202309184
:101BB000030230936319209362192091000230913F
:101BC00001022115310541F42DB73EB740910402C1
:101BD00050910502241B350BE0916219F0916319B5
:101BE000E217F307A0F42E1B3F0B2817390778F0F4
:101BF000AC014E5F5F4F2417350748F04E0F5F1F53
:101C000050936319409362198193919302C0E0E06D
:101C1000F0E0CF01DF91CF911F910F910895CF9305
:101C2000DF93009709F481C0FC013297138212827E
:101C3000A0916419B0916519109781F420813181C8
:101C4000820F931F20916219309163192817390769
:101C500051F5F0936319E093621967C0ED0120E03C
:101C600030E0CE17DF0740F44A815B819E014115C9
:101C70005105F1F0EA01F5CFD383C2834081518150
:101C8000840F951FC817D90759F488819981840F4B
:101C9000951F0296918380838A819B81938382839F
:101CA0002115310529F4F0936519E09364193DC0BD
:101CB000E901FB83EA8349915991C40FD51FEC17C1
:101CC000FD0761F480819181840F951F0296E901DF
:101CD00099838883828193819B838A83E0E0F0E00B
:101CE00012968D919C911397009719F0FD01DC01DC
:101CF000F7CF8D919C9111979D012E5F3F4F820FE1
:101D0000931F20916219309163192817390769F4DC
:101D1000309729F4109265191092641902C0138249
:101D20001282B0936319A0936219DF91CF91089545
:101D30008F929F92AF92BF92CF92DF92EF92FF92DB
:101D4000CF93DF93EC01688179818A819B81611552
:101D500071058105910521F464E279ED8BE597E049
:101D60002DE133EF41E050E0A6DE49015A019B012D
:101D7000AC01A7EAB1E474D36B017C01ACEEB4EF23
:101D8000A501940179D3DC01CB018C0D9D1DAE1D05
:101D9000BF1DB7FF03C00197A109B048888399838D
:101DA000AA83BB839F77DF91CF91FF90EF90DF9065
:101DB000CF90BF90AF909F908F900895B9CF86E05D
:101DC00092E0B6CFA0E0B0E08093060290930702C5
:101DD000A0930802B09309020895FB01DC0102C040
:101DE00001900D9241505040D8F70895FB01DC015D
:101DF0004150504030F08D910190801919F400202D
:101E0000B9F7881B990B0895CF93DF93CDB7DEB751
:101E1000AE014A5F5F4FFA0161917191AF0180910C
:101E20006819909169196FD0DF91CF9108950F9340
:101E30001F93CF93DF93E0916819F0916919238183
:101E400021FF1BC08C01D0E0C0E0F80181918F011F
:101E50006091681970916919DB011896ED91FC91F8
:101E60001997882331F01995892B79F3DFEFCFEF9C
:101E7000ECCF8AE01995892B19F08FEF9FEF02C004
:101E80008D2F9C2FDF91CF911F910F9108950F936C
:101E90001F93CF93DF93CDB7DEB72E970FB6F8948D
:101EA000DEBF0FBECDBF0E891F89888D998D26E0BC
:101EB0002C831A83098397FF02C080E090E8019782
:101EC0009E838D83AE01445E5F4F6A8D7B8DCE0114
:101ED000019619D04D815E8157FD0AC02F8138854A
:101EE000421753070CF49A01F801E20FF31F108216
:101EF0002E960FB6F894DEBF0FBECDBFDF91CF9107
:101F00001F910F9108952F923F924F925F926F927F
:101F10007F928F929F92AF92BF92CF92DF92EF9279
:101F2000FF920F931F93CF93DF93CDB7DEB72B971D
:101F30000FB6F894DEBF0FBECDBF6C017B018A01E6
:101F4000FC0117821682838181FFBFC1CE010196F9
:101F50003C01F6019381F70193FD859193FF8191F7
:101F60007F01882309F4ADC1853239F493FD859151
:101F700093FF81917F01853221F4B60190E0D6D1A3
:101F8000E8CF912C212C312CFFE1F315D8F08B32C6
:101F900079F038F4803279F08332A1F4232D206176
:101FA0001DC08D3261F0803369F4232D216016C08D
:101FB000832D8260382EE32DE4603E2E2AC0F32D5F
:101FC000F8601DC037FC2DC020ED280F2A3040F0EE
:101FD0008E32B9F436FC75C1232D2064322E19C01F
:101FE00036FE06C08AE0989E200D1124922E11C064
:101FF000EAE02E9E200D1124222EF32DF0623F2EBA
:1020000008C08C3621F4832D8068382E02C08836B3
:1020100041F4F70193FD859193FF81917F01811137
:10202000B3CF982F9F7D9554933028F40C5F1F4FAA
:102030009FE399830DC0833631F0833771F0833588
:1020400009F055C020C0F801808189830E5F1F4FC1
:1020500088248394912C530112C02801F2E04F0E82
:10206000511CF801A080B18036FE03C0692D70E0DC
:1020700002C06FEF7FEFC5014ED14C018201F32DFD
:10208000FF773F2E15C0280122E0420E511CF801B7
:10209000A080B18036FE03C0692D70E002C06FEFF2
:1020A0007FEFC5012DD14C01F32DF0683F2E820149
:1020B00033FC19C0822D90E088169906A0F4B60171
:1020C00080E290E033D12A94F5CFF50137FC859179
:1020D00037FE81915F01B60190E028D121102A944A
:1020E00021E0821A91088114910479F7E1C08436C5
:1020F00011F0893639F5F80137FE07C0608171812A
:10210000828193810C5F1F4F08C060817181072E0F
:10211000000C880B990B0E5F1F4FF32DFF763F2E9F
:1021200097FF09C090958095709561957F4F8F4F6F
:102130009F4FF0683F2E2AE030E0A30133D1882E74
:10214000861844C0853731F4232D2F7EB22E2AE025
:1021500030E025C0932D997FB92E8F36C1F018F449
:10216000883579F0AEC0803719F0883721F0A9C0E2
:10217000E92FE061BE2EB4FE0DC0FB2DF460BF2E32
:1021800009C034FE0AC0292F2660B22E06C028E0FE
:1021900030E005C020E130E002C020E132E0F8018B
:1021A000B7FE07C060817181828193810C5F1F4FF0
:1021B00006C06081718180E090E00E5F1F4FA30137
:1021C000F1D0882E8618FB2DFF773F2E36FE0DC0EE
:1021D000232D2E7FA22E891458F434FE0BC032FC1E
:1021E00009C0832D8E7EA82E05C0B82CA32C03C059
:1021F000B82C01C0B92CA4FE0FC0FE01E80DF11DE2
:102200008081803321F49A2D997EA92E09C0A2FEE7
:1022100006C0B394B39404C08A2D867809F0B394B1
:10222000A3FC10C0A0FE06C0B21480F4280C922CAF
:102230009B180DC0B21458F4B60180E290E076D03D
:10224000B394F8CFB21418F42B1802C0982C212C98
:10225000A4FE0FC0B60180E390E068D0A2FE16C0D5
:10226000A1FC03C088E790E002C088E590E0B601D9
:102270000CC08A2D867851F0A1FE02C08BE201C00D
:1022800080E2A7FC8DE2B60190E050D0891430F4D2
:10229000B60180E390E04AD09A94F8CF8A94F30193
:1022A000E80DF11D8081B60190E040D08110F6CF9D
:1022B000222009F44ECEB60180E290E037D02A9475
:1022C000F7CFF6018681978102C08FEF9FEF2B96A3
:1022D0000FB6F894DEBF0FBECDBFDF91CF911F9137
:1022E0000F91FF90EF90DF90CF90BF90AF909F90B5
:1022F0008F907F906F905F904F903F902F900895B8
:10230000FC010590615070400110D8F780959095C0
:102310008E0F9F1F0895FC016150704001900110C5
:10232000D8F7809590958E0F9F1F08950F931F9358
:10233000CF93DF93FB01238121FD03C08FEF9FEF3C
:102340002CC022FF16C04681578124813581421757
:10235000530744F4A081B1819D012F5F3F4F31832A
:1023600020838C93268137812F5F3F4F37832683CD
:1023700014C08B01EC01FB010084F185E02D19955F
:10238000892BE1F6D80116968D919C9117970196AD
:1023900017969C938E931697CE01DF91CF911F9144
:1023A0000F910895FA01AA27283051F1203181F1C7
:1023B000E8946F936E7F6E5F7F4F8F4F9F4FAF4F4D
:1023C000B1E03ED0B4E03CD0670F781F891F9A1F60
:1023D000A11D680F791F8A1F911DA11D6A0F711D14
:1023E000811D911DA11D20D009F468943F912AE020
:1023F000269F11243019305D3193DEF6CF01089508
:10240000462F4770405D4193B3E00FD0C9F7F6CF38
:10241000462F4F70405D4A3318F0495D31FD405200
:10242000419302D0A9F7EACFB4E0A6959795879596
:1024300077956795BA95C9F7009761057105089575
:102440009B01AC010A2E0694579547953795279521
:10245000BA95C9F7620F731F841F951FA01D0895B9
:102460000FD0A59F900DB49F900DA49F800D911D3E
:1024700011240895B7FFF4CFF3DF821B930B089567
:10248000A29FB001B39FC001A39F700D811D1124B5
:10249000911DB29F700D811D1124911D0895F89416
:0224A000FFCF6C
:1024A20000006C1920000100000000000002000082
:1024B20000002D0D0000000053594E432C005359CB
:1024C2004E43205052494A41543A2025730D0A0086
:1024D20041434B2C5452503D25752C5453523D25AB
:0E24E2007500535441525420534C415645004E
:00000001FF
